00000421680000033353PECAE5122007080200000020070802163001Z0505496055MARCELO MACARI CODA           2738159        CARLOS DORLHIAC 869                               LA REINA                      SIMON BOLIVAR ALTURA 8100                                                                           0000000000006141067807356100131ST 0000000001000100Se generó correctamente el pedido                                                                        0010022706ZSPE5506017308ZPPE00818737TROTTER S.A.                       2007080220070802
00000421680000033368PECAE5122007080200000020070802163001Z0505496055MARCELO MACARI CODA           2738159        CARLOS DORLHIAC 869                               LA REINA                      SIMON BOLIVAR ALTURA 8100                                                                           0000000000006141077807356000141ST 0000000001000100Se generó correctamente el pedido                                                                        0010022706ZSPE5506017308ZPPE00818737TROTTER S.A.                       2007080220070802
00000421680000033367PECAE5122007080200000020070802163001Z0505496055MARCELO MACARI CODA           2738159        CARLOS DORLHIAC 869                               LA REINA                      SIMON BOLIVAR ALTURA 8100                                                                           0000000000006141087807356086602ST 0000000001000100Se generó correctamente el pedido                                                                        0010022706ZSPE5506017308ZPPE00818737TROTTER S.A.                       2007080220070802
00000421680000033366PECAE5122007080200000020070802163001Z0505496055MARCELO MACARI CODA           2738159        CARLOS DORLHIAC 869                               LA REINA                      SIMON BOLIVAR ALTURA 8100                                                                           0000000000006141097807356085391ST 0000000001000100Se generó correctamente el pedido                                                                        0010022706ZSPE5506017308ZPPE00818737TROTTER S.A.                       2007080220070802
00000421680000033365PECAE5122007080200000020070802163001Z0505496055MARCELO MACARI CODA           2738159        CARLOS DORLHIAC 869                               LA REINA                      SIMON BOLIVAR ALTURA 8100                                                                           0000000000006141097807356085391ST 0000000001000100Se generó la solicitud de pedido                                                                         0010022706ZSPE
00000421680000033364PECAE5122007080200000020070802163001Z0505496055MARCELO MACARI CODA           2738159        CARLOS DORLHIAC 869                               LA REINA                      SIMON BOLIVAR ALTURA 8100                                                                           0000000000006141107807356085704ST 0000000001000100Se generó correctamente el pedido                                                                        0010022706ZSPE5506017308ZPPE00818737TROTTER S.A.                       2007080220070802
00000421680000033363PECAE5122007080200000020070802163001Z0505496055MARCELO MACARI CODA           2738159        CARLOS DORLHIAC 869                               LA REINA                      SIMON BOLIVAR ALTURA 8100                                                                           0000000000006141112082001104206ST 0000000001000100Se generó correctamente el pedido                                                                        0010022706ZSPE5506017308ZPPE00818737TROTTER S.A.                       2007080220070802
00000421680000033362PECAE5122007080200000020070802163001Z0505496055MARCELO MACARI CODA           2738159        CARLOS DORLHIAC 869                               LA REINA                      SIMON BOLIVAR ALTURA 8100                                                                           0000000000006141122082001107726ST 0000000001000100Se generó correctamente el pedido                                                                        0010022706ZSPE5506017308ZPPE00818737TROTTER S.A.                       2007080220070802
00000421680000033361PECAE5122007080200000020070802163001Z0505496055MARCELO MACARI CODA           2738159        CARLOS DORLHIAC 869                               LA REINA                      SIMON BOLIVAR ALTURA 8100                                                                           0000000000006141137807356085469ST 0000000001000100Se generó correctamente el pedido                                                                        0010022706ZSPE5506017308ZPPE00818737TROTTER S.A.                       2007080220070802
00000421680000033360PECAE5122007080200000020070802163001Z0505496055MARCELO MACARI CODA           2738159        CARLOS DORLHIAC 869                               LA REINA                      SIMON BOLIVAR ALTURA 8100                                                                           0000000000006141137807356085469ST 0000000001000100Se generó la solicitud de pedido                                                                         0010022706ZSPE
00000421680000033359PECAE5122007080200000020070802163001Z0505496055MARCELO MACARI CODA           2738159        CARLOS DORLHIAC 869                               LA REINA                      SIMON BOLIVAR ALTURA 8100                                                                           0000000000006141147807356086596ST 0000000001000100Se generó correctamente el pedido                                                                        0010022706ZSPE5506017308ZPPE00818737TROTTER S.A.                       2007080220070802
00000421680000033358PECAE5122007080200000020070802163001Z0505496055MARCELO MACARI CODA           2738159        CARLOS DORLHIAC 869                               LA REINA                      SIMON BOLIVAR ALTURA 8100                                                                           0000000000006141157807356086589ST 0000000001000100Se generó correctamente el pedido                                                                        0010022706ZSPE5506017308ZPPE00818737TROTTER S.A.                       2007080220070802
00000421680000033357PECAE5122007080200000020070802163001Z0505496055MARCELO MACARI CODA           2738159        CARLOS DORLHIAC 869                               LA REINA                      SIMON BOLIVAR ALTURA 8100                                                                           0000000000006141157807356086589ST 0000000001000100Se generó la solicitud de pedido                                                                         0010022706ZSPE
00000421680000033356PECAE5122007080200000020070802163001Z0505496055MARCELO MACARI CODA           2738159        CARLOS DORLHIAC 869                               LA REINA                      SIMON BOLIVAR ALTURA 8100                                                                           0000000000006141167807356086503ST 0000000001000100Se generó correctamente el pedido                                                                        0010022706ZSPE5506017308ZPPE00818737TROTTER S.A.                       2007080220070802
00000421680000033355PECAE5122007080200000020070802163001Z0505496055MARCELO MACARI CODA           2738159        CARLOS DORLHIAC 869                               LA REINA                      SIMON BOLIVAR ALTURA 8100                                                                           0000000000006141177807356086510ST 0000000001000100Se generó correctamente el pedido                                                                        0010022706ZSPE5506017308ZPPE00818737TROTTER S.A.                       2007080220070802
00000421680000033354PECAE5122007080200000020070802163001Z0505496055MARCELO MACARI CODA           2738159        CARLOS DORLHIAC 869                               LA REINA                      SIMON BOLIVAR ALTURA 8100                                                                           0000000000006141187807356086534ST 0000000001000100Se generó correctamente el pedido                                                                        0010022706ZSPE5506017308ZPPE00818737TROTTER S.A.                       2007080220070802
