00000421670000033341PECAE5122007080100000020070801130001Z0513551398GABRIELA Cerpa M                   4157949        Cuarto de linea 160                               LAS CONDES                    Celular  Victor Perez                                                                               0000000000001229427807356100025ST 0000000001000100Introducir centro suministrador
00000421670000033342PECAE5122007080100000020070801130001Z0513551398GABRIELA Cerpa M                   4157949        Cuarto de linea 160                               LAS CONDES                    Celular  Victor Perez                                                                               0000000000001229498421152705360ST 0000000001000100Introducir centro suministrador
00000421670000033338PECAE5122007080100000020070801130001Z0513551398GABRIELA Cerpa M                   4157949        Cuarto de linea 160                               LAS CONDES                    Celular  Victor Perez                                                                               0000000000001229547807356085384ST 0000000001000100Introducir centro suministrador
00000421670000033349PECAE5122007080100000020070801130001Z0513551398GABRIELA Cerpa M                   4157949        Cuarto de linea 160                               LAS CONDES                    Celular  Victor Perez                                                                               0000000000001233862000000358086ST 0000000001000100Introducir centro suministrador
00000421670000033337PECAE5122007080100000020070801130001Z0513551398GABRIELA Cerpa M                   4157949        Cuarto de linea 160                               LAS CONDES                    Celular  Victor Perez                                                                               0000000000001307912000002049449ST 0000000001000100Introducir centro suministrador
00000421670000033322PECAE5122007080100000020070801130001Z0513551398GABRIELA Cerpa M                   4157949        Cuarto de linea 160                               LAS CONDES                    Celular  Victor Perez                                                                               0000000000001308642000002049692ST 0000000001000100Introducir centro suministrador
00000421670000033323PECAE5122007080100000020070801130001Z0513551398GABRIELA Cerpa M                   4157949        Cuarto de linea 160                               LAS CONDES                    Celular  Victor Perez                                                                               0000000000002091902082000234126ST 0000000001000100Introducir centro suministrador
00000421670000033324PECAE5122007080100000020070801130001Z0513551398GABRIELA Cerpa M                   4157949        Cuarto de linea 160                               LAS CONDES                    Celular  Victor Perez                                                                               0000000000001308542000002049746ST 0000000001000100Introducir centro suministrador
00000421670000033332PECAE5122007080100000020070801130001Z0513551398GABRIELA Cerpa M                   4157949        Cuarto de linea 160                               LAS CONDES                    Celular  Victor Perez                                                                               0000000000004025267809560714432ST 0000000001000100Introducir centro suministrador
00000421670000033326PECAE5122007080100000020070801130001Z0513551398GABRIELA Cerpa M                   4157949        Cuarto de linea 160                               LAS CONDES                    Celular  Victor Perez                                                                               0000000000004941247809560719536ST 0000000001000100Introducir centro suministrador
00000421670000033321PECAE5122007080100000020070801130001Z0513551398GABRIELA Cerpa M                   4157949        Cuarto de linea 160                               LAS CONDES                    Celular  Victor Perez                                                                               0000000000006140812082001107740ST 0000000001000100Introducir centro suministrador
00000421670000033336PECAE5122007080100000020070801130001Z0513551398GABRIELA Cerpa M                   4157949        Cuarto de linea 160                               LAS CONDES                    Celular  Victor Perez                                                                               0000000000006140842082001107849ST 0000000001000100Introducir centro suministrador
00000421670000033335PECAE5122007080100000020070801130001Z0513551398GABRIELA Cerpa M                   4157949        Cuarto de linea 160                               LAS CONDES                    Celular  Victor Perez                                                                               0000000000006770142082001255380ST 0000000001000100Introducir centro suministrador
00000421670000033334PECAE5122007080100000020070801130001Z0513551398GABRIELA Cerpa M                   4157949        Cuarto de linea 160                               LAS CONDES                    Celular  Victor Perez                                                                               0000000000006754502082001252419ST 0000000001000100Introducir centro suministrador
00000421670000033333PECAE5122007080100000020070801130001Z0513551398GABRIELA Cerpa M                   4157949        Cuarto de linea 160                               LAS CONDES                    Celular  Victor Perez                                                                               0000000000006754542082001252457ST 0000000001000100Introducir centro suministrador
00000421670000033331PECAE5122007080100000020070801130001Z0513551398GABRIELA Cerpa M                   4157949        Cuarto de linea 160                               LAS CONDES                    Celular  Victor Perez                                                                               0000000000006770002082001255304ST 0000000001000100Introducir centro suministrador
00000421670000033330PECAE5122007080100000020070801130001Z0513551398GABRIELA Cerpa M                   4157949        Cuarto de linea 160                               LAS CONDES                    Celular  Victor Perez                                                                               0000000000006841282082001262623ST 0000000001000100Introducir centro suministrador
00000421670000033329PECAE5122007080100000020070801130001Z0513551398GABRIELA Cerpa M                   4157949        Cuarto de linea 160                               LAS CONDES                    Celular  Victor Perez                                                                               0000000000001303477202060410192ST 0000000001000100Introducir centro suministrador
00000421670000033325PECAE5122007080100000020070801130001Z0513551398GABRIELA Cerpa M                   4157949        Cuarto de linea 160                               LAS CONDES                    Celular  Victor Perez                                                                               0000000000001303727202060504624ST 0000000001000100Introducir centro suministrador
00000421670000033328PECAE5122007080100000020070801130001Z0513551398GABRIELA Cerpa M                   4157949        Cuarto de linea 160                               LAS CONDES                    Celular  Victor Perez                                                                               0000000000001304467202061702838ST 0000000001000100Introducir centro suministrador
00000421670000033327PECAE5122007080100000020070801130001Z0513551398GABRIELA Cerpa M                   4157949        Cuarto de linea 160                               LAS CONDES                    Celular  Victor Perez                                                                               0000000000004076017202064553048ST 0000000001000100Introducir centro suministrador
00000421670000033348PECAE5122007080100000020070801130001Z0513551398GABRIELA Cerpa M                   4157949        Cuarto de linea 160                               LAS CONDES                    Celular  Victor Perez                                                                               0000000000001342032000002271901ST 0000000001000100Introducir centro suministrador
00000421670000033343PECAE5122007080100000020070801130001Z0513551398GABRIELA Cerpa M                   4157949        Cuarto de linea 160                               LAS CONDES                    Celular  Victor Perez                                                                               0000000000001306692000000881904ST 0000000001000100Introducir centro suministrador
00000421670000033340PECAE5122007080100000020070801130001Z0513551398GABRIELA Cerpa M                   4157949        Cuarto de linea 160                               LAS CONDES                    Celular  Victor Perez                                                                               0000000000001342277809599200609ST 0000000001000100Introducir centro suministrador
00000421670000033345PECAE5122007080100000020070801130001Z0513551398GABRIELA Cerpa M                   4157949        Cuarto de linea 160                               LAS CONDES                    Celular  Victor Perez                                                                               0000000000001342812000002275503ST 0000000001000100Introducir centro suministrador
00000421670000033339PECAE5122007080100000020070801130001Z0513551398GABRIELA Cerpa M                   4157949        Cuarto de linea 160                               LAS CONDES                    Celular  Victor Perez                                                                               0000000000004431142082000596583ST 0000000001000100Introducir centro suministrador
00000421670000033344PECAE5122007080100000020070801130001Z0513551398GABRIELA Cerpa M                   4157949        Cuarto de linea 160                               LAS CONDES                    Celular  Victor Perez                                                                               0000000000004431182082000596620ST 0000000001000100Introducir centro suministrador
00000421670000033346PECAE5122007080100000020070801130001Z0513551398GABRIELA Cerpa M                   4157949        Cuarto de linea 160                               LAS CONDES                    Celular  Victor Perez                                                                               0000000000005230042082000903237ST 0000000001000100Introducir centro suministrador
00000421670000033347PECAE5122007080100000020070801130001Z0513551398GABRIELA Cerpa M                   4157949        Cuarto de linea 160                               LAS CONDES                    Celular  Victor Perez                                                                               0000000000006125572082001103797ST 0000000001000100Introducir centro suministrador
