00002421630000033317PECAE5032007073100000020070731120002Z0506917763MARTA JARA RIOS              X7242598        PJE. ELISEO 0554, VILLA LOS HEROES                MAIPU                         SILVIA CARVALLO                                                                                     0000000000006140997807356100025CS 0000000000100010Articulo (614100) bloqueado para Compra                                                                  0010022731ZSPE
00002421630000033317PECAE5032007073100000020070731120002Z0506917763MARTA JARA RIOS              X7242598        PJE. ELISEO 0554, VILLA LOS HEROES                MAIPU                         SILVIA CARVALLO                                                                                     0000000000006141007202062066854CS 0000000000100010Articulo (614100) bloqueado para Compra                                                                  0010022731
00002421630000033317PECAE5032007073100000020070731120002Z0506917763MARTA JARA RIOS              X7242598        PJE. ELISEO 0554, VILLA LOS HEROES                MAIPU                         SILVIA CARVALLO                                                                                     0000000000006141068421152743300ST 0000000000100010Se generó correctamente el pedido                                                                        0010022731ZSPE5506018453ZPPE00818737TROTTER S.A.                       2007080220070802
00002421630000033317PECAE5032007073100000020070731120002Z0506917763MARTA JARA RIOS              X7242598        PJE. ELISEO 0554, VILLA LOS HEROES                MAIPU                         SILVIA CARVALLO                                                                                     0000000000006141077807356100025ST 0000000000100010Se generó correctamente el pedido                                                                        0010022731ZSPE5506018453ZPPE00818737TROTTER S.A.                       2007080220070802
00002421630000033317PECAE5032007073100000020070731120002Z0506917763MARTA JARA RIOS              X7242598        PJE. ELISEO 0554, VILLA LOS HEROES                MAIPU                         SILVIA CARVALLO                                                                                     0000000000006141087202062066854ST 0000000000100010Se generó correctamente el pedido                                                                        0010022731ZSPE5506018453ZPPE00818737TROTTER S.A.                       2007080220070802
00002421630000033317PECAE5032007073100000020070731120002Z0506917763MARTA JARA RIOS              X7242598        PJE. ELISEO 0554, VILLA LOS HEROES                MAIPU                         SILVIA CARVALLO                                                                                     0000000000006141098421152743300ST 0000000000100010Se generó correctamente el pedido                                                                        0010022731ZSPE5506018453ZPPE00818737TROTTER S.A.                       2007080220070802
00002421630000033317PECAE5032007073100000020070731120002Z0506917763MARTA JARA RIOS              X7242598        PJE. ELISEO 0554, VILLA LOS HEROES                MAIPU                         SILVIA CARVALLO                                                                                     0000000000006141107807356100025ST 0000000000100010Se generó correctamente el pedido                                                                        0010022731ZSPE5506018453ZPPE00818737TROTTER S.A.                       2007080220070802
00002421630000033317PECAE5032007073100000020070731120002Z0506917763MARTA JARA RIOS              X7242598        PJE. ELISEO 0554, VILLA LOS HEROES                MAIPU                         SILVIA CARVALLO                                                                                     0000000000006141117202062066854ST 0000000000100010Se generó correctamente el pedido                                                                        0010022731ZSPE5506018453ZPPE00818737TROTTER S.A.                       2007080220070802
00002421630000033317PECAE5032007073100000020070731120002Z0506917763MARTA JARA RIOS              X7242598        PJE. ELISEO 0554, VILLA LOS HEROES                MAIPU                         SILVIA CARVALLO                                                                                     0000000000006141128421152743300ST 0000000000100010Se generó correctamente el pedido                                                                        0010022731ZSPE5506018453ZPPE00818737TROTTER S.A.                       2007080220070802
00002421630000033317PECAE5032007073100000020070731120002Z0506917763MARTA JARA RIOS              X7242598        PJE. ELISEO 0554, VILLA LOS HEROES                MAIPU                         SILVIA CARVALLO                                                                                     0000000000006141137807356100025ST 0000000000100010Se generó correctamente el pedido                                                                        0010022731ZSPE5506018453ZPPE00818737TROTTER S.A.                       2007080220070802
00002421630000033317PECAE5032007073100000020070731120002Z0506917763MARTA JARA RIOS              X7242598        PJE. ELISEO 0554, VILLA LOS HEROES                MAIPU                         SILVIA CARVALLO                                                                                     0000000000006141147202062066854ST 0000000000100010Se generó correctamente el pedido                                                                        0010022731ZSPE5506018453ZPPE00818737TROTTER S.A.                       2007080220070802
00002421630000033317PECAE5032007073100000020070731120002Z0506917763MARTA JARA RIOS              X7242598        PJE. ELISEO 0554, VILLA LOS HEROES                MAIPU                         SILVIA CARVALLO                                                                                     0000000000006141158421152743300ST 0000000000100010Se generó correctamente el pedido                                                                        0010022731ZSPE5506018453ZPPE00818737TROTTER S.A.                       2007080220070802
00002421630000033317PECAE5032007073100000020070731120002Z0506917763MARTA JARA RIOS              X7242598        PJE. ELISEO 0554, VILLA LOS HEROES                MAIPU                         SILVIA CARVALLO                                                                                     0000000000006141167807356100025ST 0000000000100010Se generó correctamente el pedido                                                                        0010022731ZSPE5506018453ZPPE00818737TROTTER S.A.                       2007080220070802
00002421630000033317PECAE5032007073100000020070731120002Z0506917763MARTA JARA RIOS              X7242598        PJE. ELISEO 0554, VILLA LOS HEROES                MAIPU                         SILVIA CARVALLO                                                                                     0000000000006141177202062066854ST 0000000000100010Se generó correctamente el pedido                                                                        0010022731ZSPE5506018453ZPPE00818737TROTTER S.A.                       2007080220070802
00002421630000033317PECAE5032007073100000020070731120002Z0506917763MARTA JARA RIOS              X7242598        PJE. ELISEO 0554, VILLA LOS HEROES                MAIPU                         SILVIA CARVALLO                                                                                     0000000000006141188421152743300ST 0000000000100010Se generó correctamente el pedido                                                                        0010022731ZSPE5506018453ZPPE00818737TROTTER S.A.                       2007080220070802
