00000421720000033379PECAE5032007081300000020070813183001Z0514900291OLIVIA DEL CARMEN AVENDAÑO SEP6715898        10 DE JULIO 1050 CASA 22                          SANTIAGO                                                                                                                          0000000000006190772082001113475ST 0000000001000100Se generó correctamente el pedido                                                                        0010022737ZSPE5506019513ZPPE00772651TEKA CHILE S.A.                    2007081320070813
00000421720000033380PECAE5032007081300000020070813183001Z0514900291OLIVIA DEL CARMEN AVENDAÑO SEP6715898        10 DE JULIO 1050 CASA 22                          SANTIAGO                                                                                                                          0000000000006125462082001103803ST 0000000001000100Se generó correctamente el pedido                                                                        0010022737ZSPE5506019514ZPPE00869478JACUZZI (CHILE) S.A.               2007081320070813
00000421720000033381PECAE5032007081300000020070813183001Z0514900291OLIVIA DEL CARMEN AVENDAÑO SEP6715898        10 DE JULIO 1050 CASA 22                          SANTIAGO                                                                                                                          0000000000002121007202064902372ST 0000000001000100Se generó correctamente el pedido                                                                        0010022737ZSPE5506019515ZPPE00967554FANALOZA S.A.                      2007081320070813
