00000421430000033301PECAE5032007071900000020070719140321Z0513282355TEST BBR INGENIERIA                11             DIRECCIOS                                         ALGARROBO                     SDFS                                                                                                0000000000001303072000000979861ST 0000000001000100
00000421430000033302PECAE5032007071900000020070719140321Z0513282355TEST BBR INGENIERIA                11             DIRECCIOS                                         ALGARROBO                     SDFS                                                                                                0000000000001229427807356100025ST 0000000001000100
00000421430000033303PECAE5032007071900000020070719140321Z0513282355TEST BBR INGENIERIA                11             DIRECCIOS                                         ALGARROBO                     SDFS                                                                                                0000000000001303270720206230727ST 0000000001000100
00000421430000033304PECAE5032007071900000020070719140321Z0513282355TEST BBR INGENIERIA                11             DIRECCIOS                                         ALGARROBO                     SDFS                                                                                                0000000000001303280720206211214ST 0000000001000100
00000421430000033305PECAE5032007071900000020070719140321Z0513282355TEST BBR INGENIERIA                11             DIRECCIOS                                         ALGARROBO                     SDFS                                                                                                0000000000001303290720206211382ST 0000000001000100
